:020000040800F2
:1000000008C8002025DA000869D800086BD8000865
:100010006DD800086FD8000871D8000800000000F3
:1000200000000000000000000000000073D800087D
:1000300075D800080000000077D8000879D80008BB
:1000400045DA000849DA00084DDA000851DA0008FC
:1000500055DA000859DA00085DDA000861DA0008AC
:1000600065DA000869DA00086DDA000871DA00085C
:1000700075DA000879DA00087DDA000881DA00080C
:1000800085DA000889DA00088DDA000891DA0008BC
:1000900095DA000899DA00089DDA0008A1DA00086C
:1000A000A5DA0008A9DA0008ADDA0008B1DA00081C
:1000B000B5DA0008B9DA0008BDDA0008C1DA0008CC
:1000C000C5DA0008C9DA0008CDDA000887D80008C8
:1000D000D1DA0008D5DA0008D9DA0008DDDA00083C
:1000E000E1DA0008E5DA0008E9DA0008EDDA0008EC
:1000F000F1DA0008F5DA0008F9DA0008FDDA00089C
:1001000001DB00088DD8000805DB000809DB0008CA
:100110000DDB000811DB000815DB000819DB000807
:100120001DDB000821DB000893D8000899D80008DF
:1001300025DB000829DB00082DDB000831DB000887
:1001400035DB000839DB00083DDB00089FD80008DC
:10015000A5D80008ABD8000841DB000845DB000843
:1001600049DB00084DDB000851DB000855DB0008C7
:1001700059DB00085DDB000861DB000800000000BF
:1001800065DB000869DB0008DFF8702900291168C9
:1001900002D008431060704721EA000010607047E9
:1001A000DFF85C290029116802D00843106070470D
:1001B00021EA000010607047F0B4002238E001230B
:1001C00093400C681C409C4231D154000325A5404B
:1001D000ED4306682E400660066891F90470A7405A
:1001E0003E43066091F90460012E01D0022E14D125
:1001F00086682E408660866891F90570A7403E4368
:100200008660466826EA03034360436891F9066006
:10021000B6B29640B6B233434360C3682B40C36066
:10022000C36891F9075005FA04F42343C360521CD4
:10023000102AC4D3F0BC704701B4BDF80000ADF87B
:100240000000BDF80000DFF8BC18088001B070475E
:1002500001B4BDF80000ADF80000BDF80000DFF803
:10026000A818088001B0704781B0DFF89C080088AA
:10027000ADF80000BDF8000001B07047DFF8842839
:1002800010805180704780B5FFF7D6FF012002F043
:10029000C3FDBDE80140E7E7DFF870080089DFF83B
:1002A00064180880704770B504460D46DFF85C6836
:1002B000B08849F2413188420DD045F21031884270
:1002C00009D046F60401884219D1B079012802D13B
:1002D0003088401E041B7089FFF7AEFFA4B2200ACD
:1002E000FFF7B6FFE0B2FFF7B3FFB089FFF7A4FF57
:1002F000280AFFF7ADFFE8B2BDE87040A8E741F675
:10030000631188423ED17089B179002912D13188B8
:10031000491E0C1BFFF790FF0020FFF799FF0020FC
:10032000FFF796FFA4B2200AFFF792FFE0B2FFF7B3
:100330008FFF12E0FFF780FF200AFFF789FFE0B28E
:10034000FFF786FF3088401E001280B2FFF780FF63
:100350003088401EC0B2FFF77BFFB089FFF76CFF0B
:10036000280AFFF775FFE8B2FFF772FF7088401E9A
:10037000001280B2FFF76CFF7088401EC0B2BDE86B
:10038000704065E745F2105188421CD17089FFF733
:1003900053FF200AFFF75CFF7089401C80B2FFF713
:1003A0004BFFE0B2FFF754FFB089FFF745FF280A83
:1003B000FFF74EFFB089401C80B2FFF73DFFE8B267
:1003C000BDE8704044E7308A49F2884188421ED136
:1003D0002A20FFF731FF200AFFF73AFFE0B2FFF7CC
:1003E00037FF0120FFF734FFDF20FFF731FF2B201D
:1003F000FFF722FF280AFFF72BFFE8B2FFF728FFDD
:100400000120FFF725FF3F20BDE8704020E7B079CD
:10041000012802D13088401E041B214689B2708910
:10042000FFF72CFF2946B089BDE8704026E70000A1
:1004300070B50024DFF8D456AA79012A08D1A9881A
:1004400046F60403994203D041F66313994206D15C
:10045000002A1CD1A98841F66312914217D10146A6
:10046000072914D8DFE801F00406080A0C0E101260
:1004700006200CE007200AE0042008E0052006E042
:10048000012004E0204602E0032000E00220A988C9
:1004900045F2105649F2413291420ED046F604021E
:1004A00091420AD045F21032914206D0B14204D0B6
:1004B00041F66312914240F0B280401E062812D8E5
:1004C000DFE800F00406080A0C0E100080240AE0A1
:1004D000402408E0C02406E0202404E0602402E078
:1004E000A02400E0E024B14202D14FF4585000E0D3
:1004F000362045F21032914207D0B14205D041F684
:100500006312914201D044F0080446F6040291427D
:1005100001D144F002042146FFF7B0FEA98841F65C
:10052000631081420AD068882A88A30602D58242D5
:1005300004D201E0904201D228806A806889B142E9
:1005400045D1FFF779FE0020FFF782FE6889401C45
:1005500080B2FFF771FE0020FFF77AFE6889801CE9
:1005600080B2FFF769FE2888401E001280B2FFF7B4
:100570006FFE6889C01C80B2FFF75EFE2888401EAF
:10058000C0B2FFF765FEA889FFF756FE0020FFF70F
:100590005FFEA889401C80B2FFF74EFE0020FFF7E7
:1005A00057FEA889801C80B2FFF746FE6888401E6F
:1005B000001280B2FFF74CFEA889C01C80B2FFF782
:1005C0003BFE6888401EC0B2BDE8704040E6FFF7C1
:1005D00033FE0020FFF73CFE0020FFF739FE28889D
:1005E000401E001280B2FFF733FE2888401EC0B2C2
:1005F000FFF72EFEA889FFF71FFE0020FFF728FE59
:100600000020FFF725FE6888401E001280B2FFF729
:100610001FFE6888401EC0B2BDE8704018E607287B
:1006200012D8DFE800F0040608110A0C0E1030247E
:100630000AE0102408E0202406E0382404E02824FE
:1006400002E0182400E0082444F480510320BDE8AF
:10065000704013E62DE9F04107460E461446DFF8D8
:10066000AC54A88849F2413188425DD045F210313E
:10067000884259D045F2105188421CD16889FFF751
:10068000DBFD380AFFF7E4FD6889401C80B2FFF704
:10069000D3FDF8B2FFF7DCFDA889FFF7CDFD300AE6
:1006A000FFF7D6FDA889401C80B2FFF7C5FDF0B268
:1006B000FFF7CEFD7EE041F6631188422AD1A8798A
:1006C000002802D12888401EC71B6889FFF7B4FDA7
:1006D000BFB24FEA17284046FFF7BAFDFFB23846CF
:1006E000FFF7B6FD4046FFF7B3FD3846FFF7B0FD14
:1006F000A889FFF7A1FD370A3846FFF7A9FDF6B232
:100700003046FFF7A5FD3846FFF7A2FD3046FFF75C
:100710009FFD4FE046F60401884219D1A8790128CF
:1007200002D12888401EC71B6889FFF785FDBFB22C
:10073000380AFFF78DFDF8B2FFF78AFDA889FFF7A9
:100740007BFD300AFFF784FDF0B2FFF781FD31E059
:1007500049F2884188421ED16889FFF76DFD380A49
:10076000FFF776FDF8B2FFF773FD0120FFF770FD8C
:10077000DF20FFF76DFDA889FFF75EFD300AFFF768
:1007800067FDF0B2FFF764FD0120FFF761FD3F2038
:10079000FFF75EFD0EE0A879012802D12888401EEF
:1007A000C71B394689B26889FFF768FD3146A889B9
:1007B000FFF764FDD348298901804480BDE8F081BA
:1007C00018B449F241334FF4A072D04900284DD1FA
:1007D00000208871F02008804A80888846F604044A
:1007E000984205D0A04203D045F21033984211D16F
:1007F0002C230B812A234B812B238B81A04204D0F5
:1008000045F21033984240F095800A804FF4F07022
:1008100048808FE045F2105290420FD14FF4305093
:1008200008814FF4285048814FF42C5088814FF4B0
:10083000F07008804FF4487048807BE041F6631206
:1008400090420CD12C2008812B2048812A208881BD
:100850004FF4F07008804FF4487048806AE022201E
:100860000881202048812120888163E0012088714F
:100870000A80F02048808888984203D045F21033DF
:10088000984206D12C230B812A234B812B238B8169
:1008900044E046F60403984206D12C230B812B2317
:1008A0004B812A238B8139E045F2105398420FD1B6
:1008B0004FF430530B814FF428534B814FF42C539A
:1008C0008B814FF448730B804FF4F0734B8025E01D
:1008D00041F6631398420CD12C230B812A234B81C0
:1008E0002B238B814FF448730B804FF4F0734B80B4
:1008F00014E049F2884398420AD12C230B812A2321
:100900004B812B238B814FF4F0730B804A8005E0E1
:1009100022230B8121234B8120238B8146F6040364
:10092000984203D045F21033984203D14FF4F0704F
:1009300008804A80002012BC7AE5FEB500200290B3
:10094000029001217A20FFF71FFC01210846FFF7E2
:1009500027FC4FF44050009001208DF80400002047
:100960008DF8060002208DF8050001208DF80700A3
:10097000DFF8044C00A92046FFF71EFCDFF8FC5B03
:10098000002028606860C82002F046FA01206860F4
:100990004CF23370009002208DF8040000208DF896
:1009A000060003208DF8050001208DF8070000A93E
:1009B0002046FFF701FC4FF68070009002208DF872
:1009C000040000208DF8060003208DF805000120AA
:1009D0008DF80700DFF8A85B00A92846FFF7ECFBBD
:1009E0004FF48057009702208DF8040000208DF806
:1009F000060003208DF8050001208DF80700DFF8C0
:100A0000846B00A93046FFF7D7FB009702208DF8D2
:100A1000040000208DF8060003208DF80500012059
:100A20008DF80700DFF8607B00A93846FFF7C4FBAC
:100A30000C220021204602F001FA0C22012120465E
:100A400002F0FCF90C220421204602F0F7F90C22F6
:100A50000521204602F0F2F90C220821204602F07E
:100A6000EDF90C220921204602F0E8F90C220A21B6
:100A7000204602F0E3F90C220E21204602F0DEF9B6
:100A80000C220F21204602F0D9F90C22072128461A
:100A900002F0D4F90C220821284602F0CFF90C22EA
:100AA0000921284602F0CAF90C220A21284602F040
:100AB000C5F90C220B21284602F0C0F90C22114680
:100AC000284602F0BBF90C220D21284602F0B6F9A7
:100AD0000C220E21284602F0B1F90C220F212846E3
:100AE00002F0ACF90C221146304602F0A7F90C22B4
:100AF0001146384602F0A2F9F7BD00003038024036
:100B0000383802407E00006C8000006C0C8D0020A4
:100B100000B59DB00F200790002008903C20099060
:100B200000200A900B900C900D900920009000205E
:100B300001900820029000200390049005900690F8
:100B400006200E9000200F90109010201190002091
:100B5000129014901390159016904FF480501790A7
:100B6000002018904FF48040199000201A9007A898
:100B70001B9000A81C900EA802F084F90121062009
:100B800002F0DFF91DB000BD80B5FFF7D6FEBDE86D
:100B90000140BDE738B5FFF7F7FF322002F03CF91E
:100BA00001210020FFF76AFB322002F035F9DFF85F
:100BB000DC490020FFF767FB2082322002F02CF98D
:100BC0000020FFF760FB20820146FF2905DB4FF67E
:100BD000FF72914201D0002811D1D320FFF72CFBE6
:100BE000FFF742FB2082FFF73FFB2082FFF73CFB31
:100BF000208205022582FFF737FB28432082208AC6
:100C0000A08049F22531884204D049F22831884237
:100C100040F0938143F20801E320FFF72FFB1221FC
:100C2000E720FFF72BFB41F23121EF20FFF726FBF6
:100C300001210020FFF722FB4FF480710120FFF714
:100C40001DFB4FF4E0610220FFF718FB41F2180191
:100C50000320FFF713FB00210420FFF70FFB40F2F6
:100C600007210820FFF70AFB00210920FFF706FBF8
:100C700000210A20FFF702FB01210C20FFF7FEFAFA
:100C800000210D20FFF7FAFA00210F20FFF7F6FAF6
:100C900000211020FFF7F2FA07211120FFF7EEFAEA
:100CA00000211220FFF7EAFA00211320FFF7E6FAED
:100CB0004CF25035ADF8005004E0BDF80000401E85
:100CC000ADF80000BDF800000028F6D1ADF80050E6
:100CD00004E0BDF80000401EADF80000BDF80000C3
:100CE0000028F6D141F290511020FFF7C7FA40F2E8
:100CF00027211120FFF7C2FAADF8005004E0BDF83B
:100D00000000401EADF80000BDF800000028F6D13C
:100D1000ADF8005004E0BDF80000401EADF8000042
:100D2000BDF800000028F6D19C211220FFF7A6FA9A
:100D3000ADF8005004E0BDF80000401EADF8000022
:100D4000BDF800000028F6D1ADF8005004E0BDF871
:100D50000000401EADF80000BDF800000028F6D1EC
:100D60004FF4C8511320FFF789FA23212920FFF7F8
:100D700085FA0E212B20FFF781FAADF8005004E030
:100D8000BDF80000401EADF80000BDF800000028CE
:100D9000F6D1ADF8005004E0BDF80000401EADF8FB
:100DA0000000BDF800000028F6D100212020FFF748
:100DB00065FA00212120FFF761FAADF8005004E048
:100DC000BDF80000401EADF80000BDF8000000288E
:100DD000F6D1ADF8005004E0BDF80000401EADF8BB
:100DE0000000BDF800000028F6D107213020FFF7F1
:100DF00045FA40F207713120FFF740FA0621322010
:100E0000FFF73CFA40F204713520FFF737FA41F65C
:100E100004713620FFF732FA04213720FFF72EFA4B
:100E200000213820FFF72AFA40F206713920FFF737
:100E300025FA40F201713C20FFF720FA0F213D20F6
:100E4000FFF71CFAADF8005004E0BDF80000401EAA
:100E5000ADF80000BDF800000028F6D1ADF8005054
:100E600004E0BDF80000401EADF80000BDF8000031
:100E70000028F6D100215020FFF700FAEF21512081
:100E8000FFF7FCF900215220FFF7F8F940F23F117B
:100E90005320FFF7F3F94FF427416020FFF7EEF9F5
:100EA00001216120FFF7EAF900216A20FFF7E6F946
:100EB00000218020FFF7E2F900218120FFF7DEF911
:100EC00000218220FFF7DAF900218320FFF7D6F90D
:100ED00000218420FFF7D2F900218520FFF7CEF909
:100EE00010219020FFF7CAF94FF4C0619220FFF75C
:100EF000C5F9208A49F22831884210D10321932074
:100F0000FFF7BCF94FF488719520FFF7B7F900217E
:100F10009720FFF7B3F900219820FFF7AFF940F2CF
:100F200033110720FFF7AAF900212020FFF7A6F9C7
:100F300000212120FFF7A2F9EEE049F28841884222
:100F400040F0EA80E020FFF777F90020FFF780F912
:100F50000720FFF77DF90F20FFF77AF90D20FFF743
:100F600077F91B20FFF774F90A20FFF771F93C208D
:100F7000FFF76EF97820FFF76BF94A20FFF768F961
:100F80000720FFF765F90E20FFF762F90920FFF748
:100F90005FF91B20FFF75CF91E20FFF759F90F20BE
:100FA000FFF756F9E120FFF747F90020FFF750F966
:100FB0002220FFF74DF92420FFF74AF90620FFF71A
:100FC00047F91220FFF744F90720FFF741F93620CF
:100FD000FFF73EF94720FFF73BF94720FFF738F9C5
:100FE0000620FFF735F90A20FFF732F90720FFF74F
:100FF0002FF93020FFF72CF93720FFF729F90F20C0
:10100000FFF726F9C020FFF717F91020FFF720F9A6
:101010001020FFF71DF9C120FFF70EF94120FFF75F
:1010200017F9C520FFF708F90020FFF711F9222072
:10103000FFF70EF98020FFF70BF93620FFF7FCF8D9
:10104000B820FFF705F93A20FFF7F6F85520FFF72B
:10105000FFF8B020FFF7F0F80020FFF7F9F8B12013
:10106000FFF7EAF8B020FFF7F3F81120FFF7F0F8E8
:10107000B420FFF7E1F80220FFF7EAF8B620FFF707
:10108000DBF80220FFF7E4F84220FFF7E1F8B72091
:10109000FFF7D2F8C620FFF7DBF8E920FFF7CCF81E
:1010A0000020FFF7D5F8F720FFF7C6F8A920FFF7D3
:1010B000CFF85120FFF7CCF82C20FFF7C9F8822099
:1010C000FFF7C6F81120FFF7B7F8782001F0A4FE6B
:1010D0002920FFF7B1F82A20FFF7AEF80020FFF72C
:1010E000B7F80020FFF7B4F80120FFF7B1F8DF20D0
:1010F000FFF7AEF82B20FFF79FF80020FFF7A8F8C6
:101100000020FFF7A5F80120FFF7A2F83F20FFF726
:101110009FF82C20FFF790F80020DFF8601408609B
:101120000120BDE83240FFF74BBB2DE9F0470546F3
:101130000E4691469A4609EB0500471EBFB20AEBE0
:101140000600441EA4B2DFF84484B8F8040049F253
:10115000413188420FD045F2103188420BD046F61B
:101160000401884207D098F8061041F6631201295D
:1011700025D1904223D1B8F80A00FFF75DF8280A7C
:10118000FFF766F8E8B2FFF763F8381280B2FFF7AE
:101190005FF8F8B2FFF75CF8B8F80C00FFF74CF80E
:1011A000300AFFF755F8F0B2FFF752F8201280B27C
:1011B000FFF74EF8E0B2BDE8F047FFF749B89042BC
:1011C00034D1B8F80000A0EB0900451B701E824422
:1011D000B8F80A00FFF730F8ADB2280AFFF738F880
:1011E000E8B2FFF735F819FA85F0401E001280B218
:1011F000FFF72EF809EB0500401EC0B2FFF728F8F4
:10120000B8F80C00FFF718F8300AFFF721F8F0B231
:10121000FFF71EF81FFA8AFA4FEA1A20FFF718F8AC
:101220005FFA8AF0BDE8F047FFF712B845F21052B6
:10123000904247D1B8F80A00FEF7FEFF280AFFF7F0
:1012400007F8B8F80A00401C80B2FEF7F5FFE8B2D4
:10125000FEF7FEFFB8F80A00801C80B2FEF7ECFF34
:10126000381280B2FEF7F4FFB8F80A00C01C80B252
:10127000FEF7E2FFF8B2FEF7EBFFB8F80C00FEF75E
:10128000DBFF300AFEF7E4FFB8F80C00401C80B228
:10129000FEF7D2FFF0B2FEF7DBFFB8F80C00801CBF
:1012A00080B2FEF7C9FF201280B2FEF7D1FFB8F876
:1012B0000C00C01C80B2FEF7BFFFE0B2BDE8F047F3
:1012C000FEF7C6BF49F2884290422FD12A20FEF78E
:1012D000B3FF280AFEF7BCFF2846C0B2FEF7B8FFEE
:1012E00019FA85F0401E0012C0B2FEF7B1FF09EBFB
:1012F0000500401EC0B2FEF7ABFF2B20FEF79CFF9F
:10130000300AFEF7A5FF3046C0B2FEF7A1FF1AFA79
:1013100086F0401E0012C0B2FEF79AFF0AEB0600EC
:10132000401EC0B2BDE8F047FEF792BF012908D1C8
:101330003146A146B8F80000C21B571E401B441E90
:1013400002E02946B94637465020FEF797FF494646
:101350005120FEF793FF394689B25220FEF78EFFE7
:10136000214689B25320FEF789FF31462846BDE861
:10137000F047FEF798BFF8B504460025DFF80C6289
:101380003088718801FB00F7B08846F60401884276
:1013900013D1B079012810D12846B0712A2070816C
:1013A0002B20B08129460846FEF77DFF0120B07151
:1013B0002B2070812A20B08107E04FF4A0734FF4F6
:1013C000F07229460846FFF7B0FEFEF765FFDFF82A
:1013D000C00101E004806D1CBD42FBD3F1BD2DE9CD
:1013E000F04182B005460F461E46DFF8A081089CFA
:1013F000B8F8040046F60401884228D198F806009F
:10140000012824D128463D46B8F800108A1A571EF4
:101410003246081A461E002088F806002A20A8F83E
:101420000A002B20A8F80C00009433469BB23946E2
:1014300089B22846FFF7D3FF012088F806002B2049
:10144000A8F80A002A20A8F80C00BDE8F381501B78
:1014500000F101081FFA88F805E00C80401C80B2FA
:101460004045FADB7F1CBFB2BE42EED33946284668
:10147000FEF719FFFEF710FF00204549EFE72DE9C1
:10148000FE4F05460E461F46019607F00701481E0F
:101490008041C043C00FF90850FA81F079084843F1
:1014A000C0B20290A2F120008DF800004FF00008B9
:1014B0000C9CB94603E008F101085FFA88F802982D
:1014C000804556DAB9F10C0F0CD19DF8000000EB05
:1014D00040010FF2201000EB810018F800B04FF02F
:1014E000000A1BE0B9F1100F08D19DF800000FF2BF
:1014F000785101EB001018F800B0F0E7B9F1180FBF
:1015000037D19DF8000000EBC0010FF64C3000EB26
:10151000810018F800B0E2E70AF1010A5FFA8AFADE
:10152000BAF1080FC7DA5FEA0B6007D51748428A9D
:10153000314689B22846FFF78DF808E0002C06D125
:101540001248828A314689B22846FFF783F84FEA6B
:101550004B0B761C0D484188B6B28E4209D20199D8
:10156000711A4945D8D1019E6D1C0088ADB28542E3
:10157000A1D3BDE8F78F0000000C0240B0824142C9
:101580000010024000140240001802400C8D0020A0
:101590008000006C2DE9F04782B005460E462F46CC
:1015A000FFB205EB02081FFA88F806EB03091FFAE1
:1015B00089F90A9CDDF82CA00BE00020009023465E
:1015C0001AF8012B31462846FFF759FF600855FAF3
:1015D00080F59AF900007F280AD0202808DBADB2F8
:1015E000454502D33D4656FA84F6B6B24E45E4D39D
:1015F000BDE8F387000000000000000000000000CC
:10160000000000003F40000000000000000030002B
:10161000400030004000000009000BC03D000BC03E
:101620003D00090018C024407FE0224031800000C6
:10163000180024C01B000D803240018003801C4034
:1016400027401C80074000401000600000000000A0
:10165000000000000000000000001F80204040202B
:101660000000402020401F8000000000090006000C
:101670001F80060009000000040004003F800400F1
:1016800004000000001000600000000000000000E6
:1016900004000400040004000400000000000040F6
:1016A0000000000000000000002001C0060038001B
:1016B000400000001F802040204020401F8000008C
:1016C000000010403FC000400000000018C0214052
:1016D0002240244018400000108020402440244034
:1016E0001B80000002000D0011003FC001400000FF
:1016F0003C80244024402440238000001F8024405C
:1017000024403440038000003000200027C038000F
:10171000200000001B802440244024401B80000047
:101720001C0022C0224022401F8000000000000058
:1017300008400000000000000000000004600000FD
:1017400000000000000004000A001100208040405A
:1017500009000900090009000900000000004040DC
:10176000208011000A0004001800200023402400FB
:10177000180000001F802040274029401F40000023
:10178000004007C039000F0001C0004020403FC0AA
:10179000244024401B8000001F8020402040204027
:1017A0003080000020403FC0204020401F800000CB
:1017B00020403FC024402E4030C0000020403FC0A9
:1017C00024402E00300000000F00108020402240F6
:1017D0003380020020403FC0040004003FC020408E
:1017E000204020403FC020402040000000602020DA
:1017F00020203FC02000200020403FC024400B009C
:1018000030C0204020403FC020400040004000C089
:101810003FC03C0003C03C003FC0000020403FC030
:101820000C4023003FC020001F802040204020406B
:101830001F80000020403FC024402400180000000A
:101840001F802140214020E01FA0000020403FC019
:101850002440260019C0004018C0244024402240E3
:1018600031800000300020403FC0204030000000A8
:1018700020003F80004000403F80200020003E00CC
:1018800001C0070038002000380007C03C0007C036
:1018900038000000204039C0060039C02040000058
:1018A0002000384007C0384020000000304021C0F0
:1018B0002640384020C00000000000007FE04020AB
:1018C00040200000000070000C0003800040000079
:1018D0000000402040207FE00000000000002000C9
:1018E0004000200000000000001000100010001058
:1018F0000010001000000000400000000000000088
:10190000000002800540054003C0004020003FC0A9
:1019100004400440038000000000038004400440B1
:101920000640000000000380044024403FC0004007
:101930000000038005400540034000000000044013
:101940001FC0244024402000000002E00550055044
:101950000650042020403FC00440040003C0004063
:101960000000044027C000400000000000100010EC
:10197000041027E00000000020403FC001400700A5
:1019800004C00440204020403FC000400040000010
:1019900007C0040007C0040003C00000044007C0E3
:1019A0000440040003C000400000038004400440E1
:1019B00003800000041007F004500440038000007E
:1019C000000003800440045007F00010044007C0EA
:1019D00002400400040000000000064005400540ED
:1019E00004C00000000004001F800440004000000C
:1019F000040007800040044007C0004004000700C6
:101A000004C0018006000400060001C0070001C0F8
:101A100006000000044006C0010006C004400000AB
:101A20000410071004E001800600040000000440D8
:101A300005C00640044000000000000004007BE0F8
:101A400040200000000000000000FFF00000000047
:101A5000000040207BE00400000000004000800007
:101A600040002000200040000000000000000000B6
:101A700000000000000000000000000000001FCC7B
:101A8000000C0000000000000000080030006000B2
:101A90000800300060000000022003FC1E2002202D
:101AA00003FC1E200220000000000E1811043FFF5E
:101AB00010840C78000000000F0010840F3800C064
:101AC000077818840078000000780F8410C411246F
:101AD0000E9800E400840008080068007000000010
:101AE000000000000000000000000000000007E00F
:101AF00018182004400200000000400220041818BA
:101B000007E00000000000000240024001800FF0EA
:101B100001800240024000000080008000800FF839
:101B200000800080008000000001000D000E000019
:101B30000000000000000000000000800080008025
:101B400000800080008000800000000C000C00007D
:101B50000000000000000000000000060018006007
:101B60000180060018002000000007F0080810049B
:101B70001004080807F000000000080408041FFC17
:101B8000000400040000000000000E0C10141024DB
:101B9000104411840E0C000000000C1810041104F5
:101BA000110412880C700000000000E003200424DF
:101BB00008241FFC0024000000001F98108411045A
:101BC0001104108810700000000007F0088811044C
:101BD000110418880070000000001C00100010FCA8
:101BE00013001C001000000000000E381144108487
:101BF000108411440E38000000000700088C1044C7
:101C00001044088807F00000000000000000030CEA
:101C1000030C0000000000000000000000010106AD
:101C200000000000000000000000008001400220D1
:101C300004100808100400000220022002200220E4
:101C400002200220022000000000100408080410F6
:101C5000022001400080000000000E001200100C65
:101C6000106C10800F00000003E00C1813E4142423
:101C700017C4082807D000000004003C03C41C401F
:101C8000074000E4001C000410041FFC11041104B0
:101C900011040E880070000003E00C1810041004FA
:101CA000100410081C10000010041FFC1004100485
:101CB0001004080807F0000010041FFC11041104B0
:101CC00017C410040818000010041FFC11041100B0
:101CD00017C010000800000003E00C1810041004E6
:101CE00010441C780040000010041FFC1084008089
:101CF000008010841FFC10040000100410041FFC5E
:101D00001004100400000000000300011001100185
:101D10001FFE10001000000010041FFC11040380BF
:101D20001464181C1004000010041FFC10040004AC
:101D300000040004000C000010041FFC1F0000FC45
:101D40001F001FFC1004000010041FFC0C04030003
:101D500000E010181FFC100007F008081004100421
:101D60001004080807F0000010041FFC1084108005
:101D7000108010800F00000007F0081810241024B5
:101D8000101C080A07F2000010041FFC11041100C7
:101D900011C011300E0C000400000E1C1104108440
:101DA000108410441C3800001800100010041FFCA0
:101DB000100410001800000010001FF810040004A8
:101DC000000410041FF8100010001E0011E0001C99
:101DD000007013801C0010001FC0103C00E01F00AA
:101DE00000E0103C1FC000001004180C163401C0A5
:101DF00001C01634180C100410001C00130400FC61
:101E000013041C00100000000804101C106410844F
:101E100013041C04101800000000000000007FFEE6
:101E20004002400240020000000030000C0003802D
:101E30000060001C0003000000004002400240025D
:101E40007FFE0000000000000000000020004000B5
:101E500040004000200000000001000100010001DE
:101E600000010001000100010000400040002000CE
:101E70000000000000000000000000980124014460
:101E80000144014400FC000410001FFC0088010410
:101E90000104008800700000000000700088010448
:101EA00001040104008800000000007000880104A3
:101EB000010411081FFC0004000000F80144014463
:101EC0000144014400C800000000010401040FFCAB
:101ED0001104110411001800000000D60129012985
:101EE000012901C90106000010041FFC0084010043
:101EF0000100010400FC000400000104190419FCA5
:101F000000040004000000000000000300010101C3
:101F1000190119FE0000000010041FFC00240040FD
:101F200001B4010C010400000000100410041FFCA7
:101F30000004000400000000010401FC0104010091
:101F400001FC0104010000FC010401FC008401000B
:101F50000100010400FC0004000000F80104010479
:101F60000104010400F80000010101FF00850104E3
:101F70000104008800700000000000700088010467
:101F80000104010501FF00010104010401FC0084BA
:101F90000104010001800000000000CC01240124A4
:101FA000012401240198000000000100010007F84D
:101FB0000104010400000000010001F80004000415
:101FC0000004010801FC0004010001800170000C04
:101FD000001001600180010001F0010C003001C01F
:101FE0000030010C01F0010000000104018C0074BC
:101FF0000170018C01040000010101810171000EDA
:10200000001801600180010000000184010C01340E
:1020100001440184010C00000000000000000000E9
:1020200001003EFC400240020000000000000000F1
:10203000FFFF0000000000000000400240023EFCE4
:10204000010000000000000000006000800080002F
:1020500040004000200020000000000000000000C0
:102060000000000000000000000000000000000070
:102070000000000000000000000000000000000060
:1020800000000000000000000000000F80380FFE7C
:10209000380F803800000000000000000000000041
:1020A0000000000000000100000600000C000038E5
:1020B00000003100000600000C0000380000300075
:1020C000000000000000000061800067F807F98050
:1020D0000061800061800061800061800067F80716
:1020E000F98000618000000000000000000001C0D5
:1020F000E003E0F00630080418081FFFFE040E0895
:102100000787F00381E000000000000001F00006F6
:102110000C00040408060C7001F9C0000E00003B1E
:10212000E000EC18070808040C180003E0000000A9
:102130000001E00007F003F818041C080417080762
:10214000E1D003C0E00023B0003C080020080000FC
:10215000100000000000000100003100003200000B
:102160001C00000000000000000000000000000053
:10217000000000000000000000000000000000005F
:1021800000000000000000007F0001FFC00780F099
:102190000C001810000420000200000000000020C5
:1021A00000021000040C00180780F001FFC0007F3F
:1021B000000000000000000000000000000000001F
:1021C000000000004200006600006600003C0000C5
:1021D000180003FFC0001800003C00006600006605
:1021E0000000420000000000080000080000080095
:1021F00000080000080001FFC000080000080000FF
:1022000008000008000008000000000000010000B5
:102210003100003200001C0000000000000000003F
:1022200000000000000000000000000000000000AE
:10223000080000080000080000080000080000086E
:10224000000008000008000008000008000000006E
:1022500000000000000000003800003800003800D6
:10226000000000000000000000000000000000006E
:102270000000000000000000000600001C000070CC
:10228000000180000E0000380000C0000700001CA4
:102290000000300000000000000000007F8001FF0F
:1022A000E003807006001804000804000806001807
:1022B00003807001FFE0007F80000000000000004C
:1022C000000001000801000801000803FFF807FFF3
:1022D000F8000008000008000008000000000000EE
:1022E00000000001C03802C058040098040118041E
:1022F0000218040418061C1803F81801E0F800007E
:102300000000000000000001C0E003C0F00400086D
:1023100004080804080806180803F41801E7F00088
:1023200001E0000000000000000000000300000DBC
:102330000000110000610000810803010807FFF898
:102340000FFFF80001080001080000000000000075
:1023500000E007FCD0060808061008061008061062
:1023600008061838060FF00607C00000000000003D
:10237000000000003F8001FFE003843002081804E1
:102380001008041008041008071810030FF00007C5
:10239000C000000000000000000003C000070000B3
:1023A0000600000600F80607F806180006E0000719
:1023B000000006000000000000000001E1E003F75B
:1023C000F0063410041808041808040C08040C085B
:1023D00006161803F3F001C1E00000000000000041
:1023E000F80003FC30030638040208040208040263
:1023F000080404100308F001FFC0007F0000000083
:1024000000000000000000000000000000000000CC
:1024100070380070380070380000000000000000C4
:1024200000000000000000000000000000000000AC
:1024300000000000301A00301C0000000000000006
:102440000000000000000000000000000000000884
:1024500000001400002200004100008080010040C4
:102460000200200400100800080000000000000026
:102470002100002100002100002100002100002196
:1024800000002100002100002100002100000000C8
:1024900000000000000008000804001002002001F5
:1024A000004000808000410000220000140000086D
:1024B0000000000000000003C00004C00004000091
:1024C000080038080F380808380810000C300007DA
:1024D000E00003C000000000000000003F8000FF9B
:1024E000E0038070020F1006708804C0880483081F
:1024F000047F8802C09003012000FE400000080015
:1025000000180001F8003E0801C20007020007E2BF
:102510000000FE00001FC80001F80000380000089D
:1025200004000807FFF807FFF80408080408080477
:10253000080804080806180803F41801E7F0000169
:10254000E0000000000000003F8001FFE003807019
:102550000200180400080400080400080400100623
:1025600000200780C000000004000807FFF807FFF4
:10257000F804000804000804000804001802001011
:1025800003807001FFE0007F800000000400080766
:10259000FFF807FFF80408080408080408080408FE
:1025A00008043E080400080600180100600000004E
:1025B00004000807FFF807FFF804080804080004EF
:1025C0000800040800043E00060000060000018028
:1025D00000000000000000003F8001FFE003807069
:1025E0000600180400080402080402080203F007A9
:1025F00083F000020000020004000807FFF807FF54
:10260000F80408080008000008000008000008009E
:1026100004080807FFF807FFF8040008000000009E
:10262000000004000804000804000807FFF807FF82
:10263000F80400080400080400080000000000007E
:102640000000000000060000070000010400010473
:10265000000104000307FFFE07FFFC040000040064
:102660000004000004000807FFF807FFF8040C0846
:10267000001800003E0004C7800503C80600F804E7
:10268000003804001800000804000807FFF807FFDE
:10269000F804000800000800000800000800000816
:1026A0000000080000180000600000000400080797
:1026B000FFF807800807FC00007FC00003F8000750
:1026C000C000780007800807FFF807FFF80400083B
:1026D00004000807FFF807000803C00000E000003E
:1026E0003800001E000007000001C00400F007FFD2
:1026F000F8040000000000007F8001FFE00380700C
:102700000600180400080400080600180300300141
:10271000FFE0007F8000000004000807FFF807FFCB
:10272000F804040804040004040004040004040081
:10273000060C0003F80001F000000000000000009B
:102740007F8001FFE0038070060088040088040099
:10275000C806003C03003E01FFE6007F8400000045
:1027600004000807FFF807FFF8040808040800043D
:102770000C00040F00040BC00610F003F03801E059
:102780000800000800000001E0F803F030063010F7
:10279000041808041808040C08040C08020618029F
:1027A00007F00781E000000001800006000004003F
:1027B0000004000004000807FFF807FFF804000801
:1027C000040000040000060000018000040000076F
:1027D000FFE007FFF00400180000080000080000F8
:1027E0000800000800000804001007FFE0040000D3
:1027F00004000006000007E00007FE00041FE000E0
:1028000001F80000380001E0043E0007C0000600A7
:102810000004000004000007E00007FFC0041FF8E8
:102820000007C007F80007FF80043FF80007C00456
:10283000F800070000040000000000040008060083
:102840001807C07805F1C8003E00001F800463E847
:102850000780F806001804000800000004000006C5
:10286000000007800007E008047C08001FF800074C
:10287000F800180804E00807000006000004000043
:102880000000000100080600380400F80403E80412
:102890000F08047C0805F00807C0080700180400AA
:1028A00060000000000000000000000000000000C8
:1028B0000000003FFFFE2000022000022000022056
:1028C00000022000020000000000000000000800DC
:1028D0000007000000C0000038000006000001C032
:1028E00000003000000E00000100000000000000A9
:1028F0000000200002200002200002200002200030
:10290000023FFFFE00000000000000000000000089
:10291000000000000000000000080000100000306F
:10292000000020000030000010000008000000003F
:102930000000000000000100000100000100000193
:102940000000010000010000010000010000010082
:102950000001000001000001000000000000000074
:102960000020000020000010000010000000000007
:102970000000000000000000000000000000000057
:1029800000F00019F8001B18002208002608002497
:1029900008002410003FF8001FF80000080000188D
:1029A00000000004000007FFF80FFFF000181800F7
:1029B0001008002008002008003018001FF0000F49
:1029C000C00000000000000007C0001FF000183029
:1029D000002008002008002008003C08001C10000F
:1029E00000600000000000000000000007C0001FA1
:1029F000F0003818002008002008002008041010FB
:102A000007FFF80FFFF000001000000000000000BA
:102A100000000007C0001FF0001230002218002242
:102A200008002208003208001E10000E20000000DE
:102A300000000000200000200800200801FFF8032B
:102A4000FFF80620080420080420080720000300DF
:102A50000000000000000000000E000E6E001FF3DA
:102A60000031B10020B10020B1003191001F1300EE
:102A70002E1E00200E00300000000004000807FF9A
:102A8000F80FFFF8001008002000002000002008C8
:102A9000003FF8001FF800000800000000000000E0
:102AA0000000002008002008002008063FF8063F2C
:102AB000F800000800000800000800000000000006
:102AC00000000000000000000300000300200100DF
:102AD0002001002003063FFE063FFC00000000002E
:102AE0000000000000000004000807FFF80FFFF8D6
:102AF000000188000300002FC00038F800203800D3
:102B00002008000008000000000000000000040091
:102B10000804000804000807FFF80FFFF800000889
:102B2000000008000008000000000000002008006D
:102B30003FF8003FF8001008002000003FF8003F79
:102B4000F8001008002000003FF8003FF8000008DF
:102B5000000000002008003FF8003FF800100800C7
:102B60001000002000002008003FF8001FF80000BF
:102B7000080000000000000007C0000FF00018303F
:102B8000003008002008002008003008001830003D
:102B90000FF00007C0000000000000002001003F0F
:102BA000FF003FFF0010110020090020080020084E
:102BB000003038001FF0000FC000000000000000CF
:102BC00007C0001FF000381800200800200800206F
:102BD00009001011001FFF003FFF0000010000006E
:102BE000002008002008002008003FF8003FF800FF
:102BF0000808001008002008002000003000003005
:102C000000000000000000000000000C78001E180A
:102C100000330800230800210800218800219800C3
:102C200030F00038600000000000000020000020AC
:102C30000000200000FFF003FFF80020080020083B
:102C4000002008000030000000000000000000002C
:102C50002000003FF0007FF800001800000800008E
:102C600008002010003FF8007FF000001000000076
:102C7000000000002000003000003C00003F800009
:102C800023F0000078000070002380003C0000303A
:102C900000002000002000003C00003FE00023F87E
:102CA0000000E0002700003E00003FE00021F800A7
:102CB00001E0003E0000200000000000200800208D
:102CC00008003838003E680027800003C8002CF850
:102CD0000038380020180020080000000000000024
:102CE0002000003003003C01003F830023EC000083
:102CF00070002380003C0000200000200000000045
:102D00000000000000000038080020380020F80013
:102D100023E8002F88003E08003808002018000033
:102D20007000000000000000000000000000000033
:102D30000000000008000014001FF7FC300006200F
:102D40000002000000000000000000000000000081
:102D500000000000000000000000FFFFFF00000076
:102D60000000000000000000000000000000000063
:102D700000002000023000061FF7FC0014000008CD
:102D80000000000000000000000000000000000043
:102D9000000000180000600000400000400000201B
:102DA00000001000000800000400000400000C00F7
:102DB0000010000080B51E48016841F400710160F8
:102DC000016841F480610160016841F48071016033
:102DD000032000F022F9002000F004F800F04DF983
:102DE000002002BD10B50446124800684FF47A7105
:102DF000B0FBF1F000F022F9002221464FF0FF3045
:102E000000F00CF9002010BD0B480168491C01605E
:102E1000704709480068704711B581B0FFF7F9FFA6
:102E20000446FFF7F6FF001B01998842F9D313BD52
:102E3000003C0240248D0020F8A7002010B4CB10E5
:102E400000EB830001F007018900036A0F248C4026
:102E5000A3430362036A02FA01F11943016210BC41
:102E6000704750F8041B61B150F8042BD30744BFDE
:102E7000A9F101039A18002342F8043B091FFAD173
:102E8000EFE7704710B44FF02041426883681A435F
:102E9000C3681A4303691A4343691A4383691A438F
:102EA000C3691A43036A1A43436A1A43836A1A437B
:102EB000C36A1A43036B1A43036841F823208268EC
:102EC000082A06D1026851F8223043F0400341F845
:102ED0002230416B0A684B6842EA03128B6842EA6F
:102EE0000322CB6842EA03420B6942EA03524B6970
:102EF00042EA03628969114302689200A2F1C0426A
:102F000051600168DFF85C20C36AB3F5804F12D1CD
:102F1000806B0368446843EA0413846843EA04232B
:102F2000046943EA0453446943EA0463806918432B
:102F300042F8210003E06FF0704042F8210010BC1D
:102F400070474FF02042002952F8201004D041F081
:102F5000010142F820107047034B194042F820103D
:102F600070470000040100A0FEFF0F003A490A6804
:102F70004FF6FF031A4000F0070042EA0020374AEC
:102F800010430860704734480068C0F3022070475F
:102F9000012100F01F0291404009314A42F82010FF
:102FA00070470901002806D500F00F002D4A80184F
:102FB00000F8041C70472C4A8154704710B400F08C
:102FC0000700C0F10703052B00D30423041D072CC1
:102FD00001D2002000E0C01E012404FA03F35B1EAE
:102FE0001940814004FA00F0401E1040084310BC14
:102FF000704710B5401EB0F1807F01D3012010BD95
:103000001A4C60600F214FF0FF30FFF7CAFF00201D
:10301000A06007202060002010BDA7E770B504461F
:103020000D461646FFF7AFFF32462946FFF7C6FFAB
:1030300001462046BDE87040B3E7A9E7D9E70B4950
:103040000428086803D140F004000860704720F0AD
:1030500004000860704700000CED00E00000FA0575
:1030600000E100E018ED00E000E400E010E000E026
:1030700080B500F001F801BD704780B50320FFF76F
:10308000CCFF002211466FF00B00FFF7C7FF0022B4
:1030900011466FF00A00FFF7C1FF002211466FF0E2
:1030A0000900FFF7BBFF002211466FF00400FFF795
:1030B000B5FF002211466FF00300FFF7AFFF0022BB
:1030C00011466FF00100FFF7A9FF002211464FF0F3
:1030D000FF30BDE80840FFF7A1BF000003E011F892
:1030E000013B00F8013B13465A1E002BF7D17047F5
:1030F00001E000F8011B13465A1E002BF9D170475E
:1031000010B400231446621E002C05D010F8013BB9
:1031100011F8014B1B1BF5D0184610BC704700E09E
:10312000401C90F900301A0001D08A42F8D11046B4
:103130007047F0B40022134601E001225B1C032B10
:1031400015D203EB4304A4005A4D6659002EF4D067
:10315000D0F80072BE42F1D1641900F500756668BE
:10316000AF68BE42EAD12489ED88AC42E6D1032B98
:1031700007D1002A01D1022901D100200FE012203D
:103180000DE0002908D103EB43004A4901EB800020
:103190004089B0F5807F01D1102000E00020F0BC14
:1031A00070470020434A00E0401C032805D200EB92
:1031B0004001890089580029F6D1032801D1002057
:1031C000704701207047F0B400220C23394C00E016
:1031D000521C032A12D203FB02F52E59D0F80072BA
:1031E000BE42F5D12D1900F500766F68D6F808C0FB
:1031F0006745EDD12D89F688B542E9D1032A19D169
:10320000002200E0521C032A04D203FB02452D6871
:10321000002DF7D1032A14D003FB02F5D0F8006289
:103220002E512D1900F50076B0686860F08828816D
:103230000020688103FB0240002904D04389002B51
:1032400001D0002008E0002902D04FF4807101E095
:103250004189491C4181501CF0BC7047401E032825
:1032600014D200EB40018800124942185389B3F58B
:10327000807F00D10023002B00D05B1E53819BB2C6
:10328000002B01D1002242500020704702207047DD
:1032900010B40021074B08E001EB41029200D45822
:1032A000844201D10024D450491C0329F4D310BC1A
:1032B0007047000060A700202DE9F041054600247A
:1032C00005F20126F078002826D005F50678D8F812
:1032D000147001233A46294695F8010201F05AFE7E
:1032E000002801D0012417E02046F070D8F808002B
:1032F000381AD5F8181288420ED2B6780AE0D5F8F6
:103300001802C71901233A46294695F8010201F02F
:1033100041FE761E022EF2D22046BDE8F08170B545
:1033200004460D460026D4F82C02854212D02046D1
:10333000FFF7C2FF06000DD101232A46214694F86B
:10334000010201F01CFE002802D04FF0FF350126DB
:10335000C4F82C52304670BD38B50446FFF7ACFFB8
:10336000050064D194F80002032857D194F80502AF
:10337000012853D14FF4007200212046FFF7B8FE18
:10338000552084F8FE01AA2084F8FF015220207005
:1033900060706120A0704120E070722084F8E40128
:1033A00084F8E501412084F8E601612084F8E70112
:1033B000D4F8100284F8E801D4F8100280B2000AB0
:1033C00084F8E901D4F81002000C84F8EA01D4F87A
:1033D0001002000E84F8EB01D4F80C0284F8EC0122
:1033E000D4F80C0280B2000A84F8ED01D4F80C0283
:1033F000000C84F8EE01D4F80C02000E84F8EF0102
:10340000D4F81C02421CC4F82C220123214694F853
:10341000010201F0BFFD002084F8050200221146E0
:1034200094F8010201F0C1FD002800D001252846D2
:1034300032BD891ED0F81422921E914201D3002081
:10344000704790F80222D0F8280202FB0100704772
:103450002DE9F84304460D46022D61D304F50076AC
:10346000706985425CD24FF0FF3794F80002012862
:1034700004D055D303283AD028D351E005EB5508A2
:10348000306A00EB58212046FFF749FF002848D159
:103490004FEAC850C00D10F8049008F10108306AD6
:1034A00000EB58212046FFF73AFF002839D14FEAB8
:1034B000C850C00D005D49EA0029E80702D54FEA6F
:1034C00019172EE04FEA09573F0D2AE0306A00EB4A
:1034D00015212046FFF723FF002822D16800C005F0
:1034E00014EBD0504178007840EA012719E0306AA7
:1034F00000EBD5112046FFF712FF002811D1A800DC
:10350000C00514EBD050C1788278120442EA016100
:10351000427841EA02210078084307013F0900E0B0
:1035200001273846BDE8F2832DE9F041044688467C
:103530001546B8F1020F75D304F500767069804521
:1035400070D294F80002012804D06BD303284BD02A
:1035500036D367E008EB5807306A00EB5721204666
:10356000FFF7DDFE00285ED1F80514EBD0517F1C7B
:1035700018F0010805D0087800F00F0040EA0510A7
:1035800000E02846087001203071306A00EB5721B6
:103590002046FFF7C4FE002845D1F90514EBD151B0
:1035A000B8F1000F01D02A0906E00A7802F0F00213
:1035B0002B0A03F00F031A430A700121317132E024
:1035C000306A00EB18212046FFF7A9FE00282AD117
:1035D0004FEA4801C90514EBD1510D70ADB22A0A6A
:1035E0004A70012131711EE0306A00EBD81120468B
:1035F000FFF795FE002816D14FEA8801C90514EBA4
:10360000D151CA78120602F0704215430D702A4655
:1036100092B2120A4A702A0C8A702A0ECA700121CC
:10362000317100E00220BDE8F0812DE9F04104464F
:103630008846B8F1020F20D304F504756868804508
:103640001BD200260EE0D4F8100210F1010F08D0B2
:10365000401CC4F8100294F8050240F0010084F800
:103660000502B8466868804515D241462046FFF7F6
:10367000EFFE07000FD0012F01D102260BE017F15A
:10368000010F01D1012606E0002241462046FFF746
:103690004BFF0600D7D03046BDE8F0812DE9F04160
:1036A00004460D000CD1D4F80C82B8F1000F04D000
:1036B00004F503708068804511D34FF001080EE0D7
:1036C000FFF7C6FE022801D2012049E010F1010FE8
:1036D00046D004F503718968884241D3A84647461D
:1036E00004F503767F1CB068874203D30227B8F144
:1036F000020F2CD339462046FFF7AAFE00281FD11F
:103700006FF0704239462046FFF70EFF002806D1C1
:10371000002D04D03A4629462046FFF705FF002831
:1037200017D1C4F80C72706810F1010F17D0401E49
:10373000706094F8050240F0010084F805020EE084
:1037400010F1010F0CD001280AD04745CAD1002042
:1037500006E0012802D14FF0FF3700E0012738468C
:10376000BDE8F081D0F82422121D490AD0F80002E9
:1037700090F80202B1FBF0F001E0401A121D52F87D
:10378000041B002901D1002070478842F5D211683E
:10379000081870472DE9F04104460D4604F50076FF
:1037A000F580B768012F06D0D4F8000200F500714B
:1037B0004A69974201D302203EE0002F04D190F8DD
:1037C0000002032800D14F6A002F06D108898542E4
:1037D00001D3022030E0486A1EE088784FEA0018E2
:1037E00001E0A5EB0805D4F800024545394611D3A0
:1037F000FFF72EFE074617F1010F01D101201BE054
:10380000022F05D3D4F80002D0F814028742E8D37F
:10381000022011E0FFF70DFEF760002801D1022021
:103820000AE000EB1510306105F00F00D4F800122B
:1038300001EB401070610020BDE8F0812DE9F041FE
:103840000446884604F50075E888461C300428D0F4
:103850002869002825D016F00F0F72D1401C28616E
:10386000E968D4F80002002904D1B0F808028642C1
:1038700067D316E090F80222521E12EA161F60D19A
:10388000FFF7E6FD0746022F16D317F1010F49D0C7
:10389000D4F80002D0F814128F424BD3B8F1000FC5
:1038A00001D1042056E0E968FFF7F8FE070001D1D6
:1038B00007204FE0012F01D102204BE017F1010F4B
:1038C00030D0D4F80002FFF7F7FC00282AD14FF4DB
:1038D00000720021D4F80002FFF70AFC3946D4F840
:1038E0000002FFF7A6FDD4F80012C1F82C024FF039
:1038F000000808E0D4F80002D0F82C12491CC0F8E7
:103900002C1208F10108D4F8000290F80212884540
:103910000AD2012180F80412D4F80002FFF7CCFC8F
:103920000028E7D0012015E0D0F82C12A1EB080107
:10393000C0F82C12EF603946D4F80002FFF779FD89
:103940002861EE8006F00F00D4F8001201EB401061
:1039500068610020BDE8F081F8B504460D460021FD
:10396000FFF718FF00281AD1002604F500773969FF
:10397000D4F80002FFF7D3FC002810D17969097848
:10398000E52901D0002903D1761CAE4201D106E021
:10399000002601212046FFF751FF0028E7D0042828
:1039A00000D10720F2BDCA7E8B7E43EA022290F846
:1039B0000002032805D1487D097D41EA002042EA42
:1039C00000421046704781760A4692B2120AC276C9
:1039D000090C0175090A417570472DE9F04104464B
:1039E0000D46287820F04000401E0D2101FB00F616
:1039F00000274FF001080FF21410385C4119497884
:103A0000405D40EA0120B8F1000F0CD001F0FEFA51
:103A10008046FF2E18D234F8160001F0F7FA761C13
:103A2000804504D010E04FF6FF7188420CD17F1C16
:103A30000D2FE0D32878400608D5B8F1000F05D047
:103A400034F81600002801D0002000E00120BDE875
:103A5000F08170B40A7802F03F02521E0D235A43DF
:103A6000002301240FF2A4055D5D6E1876786D5C6D
:103A700045EA0625002C06D0FF2A10D22C4620F855
:103A80001240521C03E04FF6FF76B54207D15B1C93
:103A90000D2BE7D30978490606D5FF2A01D300206C
:103AA00003E0002120F81210012070BC7047F0B430
:103AB0004B730F23CB7200230B738B76CB76531E85
:103AC0000D246343002425464FF6FF76B44202D00E
:103AD00030F813405B1C0FF23407EF5D7C544FEA63
:103AE000242C7F1887F801C0002C00D134466D1CAF
:103AF0000D2DEBD3B44203D030F81300002801D1D0
:103B000042F040020A70F0BC704700000103050754
:103B1000090E10121416181C1E0000007CB5044675
:103B200016461D460B22FFF7D9FA062D14D330880E
:103B3000002811D036F8020B00211029F7D200F02E
:103B4000010202EB45054008EA0303D585F48835F8
:103B500085F02105491CF0E7072000AA05F00F01B8
:103B60003031C9B23A2900DBC91D8154401E2D09EC
:103B7000F4D17E218154002100E0491C814202D20F
:103B80000B5D202BF9D10B46591C082802D2855C0D
:103B9000401C00E020251D550829F4D373BD0021E9
:103BA0000B220B46C90101EB530110F8013B5918D8
:103BB000C9B2521EF5D1084670472DE9F84F0446A8
:103BC0000021FFF7E7FD8246BAF1000F68D1FF251B
:103BD0002E462F4604F500784FF6FF79A8F824907A
:103BE000D8F81010D4F80002FFF799FB8246BAF11A
:103BF000000F55D1D8F814B09BF80000002802D16E
:103C00004FF0040A4CE09BF80B1001F03F01E5284F
:103C10003BD00A46120701D50F2936D10F2921D1F1
:103C2000D8F82010002933D00146490608D59BF862
:103C30000D6000F0BF000746B8F80610A8F8241081
:103C4000FFB2B8420CD19BF80D00864208D159460C
:103C5000D8F82000FFF7C1FE002801D07F1E17E032
:103C60002F4615E0FFB2002F04D15846FFF797FF0B
:103C7000864215D0D8F81810C87AC00705D40B2290
:103C80005846FFF73DFA00280AD02F46A8F824909E
:103C900000212046FFF7D2FD8246BAF1000F9FD0E7
:103CA0005046BDE8F28F2DE9F04704460D46FF2649
:103CB0003746B0464FF0040A04F50079D9F81010E1
:103CC000002942D0D4F80002FFF729FB8246BAF15E
:103CD000000F3AD1D9F814100878002802D14FF01B
:103CE000040A32E0CA7A02F03F02E52836D02E28D4
:103CF00034D022F02003082B01D1012300E000235F
:103D0000AB422BD10F2A2BD10246520608D591F88F
:103D10000D8000F0BF000746B9F80620A9F824205E
:103D2000FFB2B8421AD1487B804517D1D9F820009C
:103D3000FFF78FFE002811D07F1E00212046FFF7DD
:103D40007DFD8246BAF1000FB8D0BAF1000F02D063
:103D50000020C9F810005046BDE8F0873746ECE770
:103D6000FFB2002F04D10846FFF719FF8045ECD0C1
:103D70004FF6FF70A9F82400E7E72DE9F04784B07B
:103D8000044604F50075AF69D5F820800C22394649
:103D900000A8FFF7A3F90DF1000999F80B00C0077F
:103DA00022D50020F87228624FF0010A01E00AF1E2
:103DB000010ABAF1640F0AD25346424600A93846B6
:103DC000FFF7ACFE2046FFF7F8FE0600EFD0BAF191
:103DD000640F01D1072068E076B2042E64D199F80F
:103DE0000B00F872C5F8208099F80B0080070ED5FB
:103DF0004FF0000A01E00AF1010A38F81A00002821
:103E0000F9D10AF119000D21B0FBF1F700E001270B
:103E100039462046FFF7A0FD060027D17F1E25D09A
:103E2000E888C11B2046FFF7B5FC06001ED1A86933
:103E3000FFF7B5FE80462969D4F80002FFF76FFA54
:103E4000060013D143463A46D2B26969286AFFF7A1
:103E50002EFE0120D4F8001281F804020021204631
:103E6000FFF7ECFC060001D17F1EE4D1002E1BD130
:103E70002969D4F80002FFF752FA060014D1202273
:103E800000216869FFF734F90B22A9696869FFF717
:103E900025F9A869C07A00F0180069690873012043
:103EA000D4F8001281F80402304604B0BDE8F0876F
:103EB000F8B5044604F50075EE88A98C4FF6FF703E
:103EC000814200D131462046FFF764FC07001FD134
:103ED0002969D4F80002FFF722FA070015D1202241
:103EE00000216869FFF704F9E5206969087001207D
:103EF000D4F8001281F80402E888B04205D200210B
:103F00002046FFF79BFC0700E2D0042F00D10227D8
:103F10003846F2BDF8B50C4604F20906D0F8101286
:103F2000002939D000F504714968002506E008220F
:103F30000F7B174200D0203306F8013B0B2D14D223
:103F40006B566D1C202BF9D0052B01D16FF01A0395
:103F5000092D02D12E2206F8012BA3F141021A2AC3
:103F6000EAD2092DE3D31022E2E7CA7A2272CA7F8D
:103F70008B7F1B0443EA02624B7F42EA03220B7FE2
:103F80001A4322604A7E0B7E43EA0222A280CA7D47
:103F9000897D41EA0221E18000213170A669002E6D
:103FA00022D00D46D0F8101200291BD0E16900295B
:103FB00018D000F50470818A4FF6FF72914211D03B
:103FC000076901E0A8556D1C37F8020B010009D004
:103FD000002100F0F9FF002803D0E169491E8D425D
:103FE000F0D300250020A855F1BD2DE9F84F044677
:103FF0008846D8F8009001E009F1010999F900001C
:104000002F28F9D05C28F7D0D4F8200200900025A2
:104010002E4614E0FF2D36D20121F8B200F0D4FF75
:10402000070030D0802F06DA39460FF2D810FFF79C
:1040300076F8002827D1009820F815706D1C16F925
:104040000970BFB2761C202F03DB2F2F01D05C2F0D
:10405000E0D106EB0900C8F80000202F02DA4FF08B
:10406000040803E04FF0000800E06D1E002D08D0AA
:10407000009800EB450030F8027C202FF5D02E2F61
:10408000F3D0002D01D1062073E00020009921F823
:1040900015000B222021D4F81802FFF729F800267A
:1040A00000E0761C009830F816002028F9D02E2861
:1040B000F7D0002E03D048F0030800E06D1E002D5D
:1040C00006D0009800EB450030F8020C2E28F5D100
:1040D0004FF0000BD9464FF0080A01E048F0030802
:1040E000009830F81670761C002F10D0202FF5D0D5
:1040F0002E2F01D1AE42F1D1D34501D2AE424AD1E9
:10410000BAF10B0F37D148F003085FFA88F8D4F8FA
:1041100018020178E52901D105210170BAF1080FD3
:1041200001D14FEA89095FFA89F909F00C000C28DE
:1041300003D009F00300032803D148F002085FFA16
:1041400088F8404680070FD409F00300012803D106
:1041500048F010085FFA88F809F00C00042803D131
:1041600048F008085FFA88F8D4F8180280F80B8045
:104170000020BDE8F28FAE4203D048F003085FFA9A
:1041800088F8B542C3D32E464FF0080B4FF00B0A08
:104190004FEA8909A4E7802F0EDB0021384600F0A2
:1041A00013FF070004D00FF26800381810F8807C65
:1041B00048F002085FFA88F8002F06D039460FF25F
:1041C000D000FEF7ACFF002805D05F2748F00308B9
:1041D0005FFA88F80EE0A7F141001A2802D249F0F0
:1041E000020907E0A7F161001A2803D249F001098A
:1041F000203FBFB2D4F818020BF800700BF1010B8E
:104200006EE70000222A3A3C3E3F7C7F000000001F
:10421000809A90418E418F804545454949498E8F0E
:104220009092924F994F555559999A9B9C9D9E9F5C
:1042300041494F55A5A5A6A7A8A9AAABAC21AEAFE9
:10424000B0B1B2B3B4B5B6B7B8B9BABBBCBDBEBFF6
:10425000C0C1C2C3C4C5C6C7C8C9CACBCCCDCECFE6
:10426000D0D1D2D3D4D5D6D7D8D9DADBDCDDDEDFD6
:10427000E0E1E2E3E4E5E6E7E8E9EAEBECEDEEEFC6
:10428000F0F1F2F3F4F5F6F7F8F9FAFBFCFDFEFFB6
:104290002B2C3B3D5B5D000032B50446084690F98F
:1042A00000002F2801D05C2802D10846401C009055
:1042B00004F500750020A860009890F900002028FF
:1042C0000BD200212046FFF765FA0021696132BD5B
:1042D000D4F80002FFF767FBA86000A92046FFF7AB
:1042E00084FE002813D12046FFF767FCA969C97A2C
:1042F000002805D004280AD1490708D4052032BD7A
:10430000490704D46969C87AC006E1D4052032BDE2
:1043100010B44FF0FF310268002A19D000E0521C9F
:1043200092F900301C46202B01D33A2CF7D13A2CBD
:104330000DD1036813F9014B303C0A2C08D293428B
:1043400006D1022C04D22146521C026000E000215A
:10435000084610BC704738B5044604F2FE1500202C
:10436000A8714FF0FF30C4F82C022046FEF7D7FFAB
:10437000002801D0032032BD687894F8FE1141EA8C
:1043800000204AF65521884201D0022032BD04F2B5
:104390003601DFF8F4038A784B781B0243EA0242C5
:1043A00094F836301A43824201D1002032BD8A7F10
:1043B0004B7F1B0243EA0242097F1143814201D134
:1043C000002032BD012032BD2DE9FF418046084664
:1043D00016460021C8F80010FFF79AFF070001D524
:1043E0000B2084E1DFF8A44304EB87004568002D2F
:1043F00001D10C207BE1C8F8005095F8000200289C
:104400000CD095F8010200F0A1FD0146C90705D4C2
:10441000002E01D0400713D4002068E1002085F869
:10442000000285F8017295F8010200F098FD01463E
:10443000C90701D503205AE1002E03D0400701D55A
:104440000A2054E1002631462846FFF784FF07463C
:10445000012F2ED1304604E0314600AA42F8201048
:10446000401C042811D205EB001101F2BE110A799B
:10447000002AF1D0CA7A8B7A1B0443EA02624B7A93
:1044800042EA0322097A1143E7E7B04600A850F850
:104490002860002E05D031462846FFF75CFF07460E
:1044A00000E00227002F04D008F10108B8F1040F42
:1044B000ECD3032F01D1012019E1002F40F0A68099
:1044C000287BE97A41EA0020B0F5007F40F09E8029
:1044D000E87DA97D51EA00200DD195F8270095F8D7
:1044E0002610090441EA006095F8251040EA0120F1
:1044F00095F824100843C5F81802297C85F80312A2
:104500000A46012A02D0022A40F080804843697B93
:1045100085F80212002979D04A1E114276D1A97C71
:104520006A7C42EA0121A5F808120F2211426DD1DE
:104530002A7DEB7C53EA02230DD195F8232095F8D0
:1045400022301B0443EA026295F8213042EA03223A
:1045500095F820301343EA7BAF7B57EA022255D00F
:10456000871807EB11118B4250D35B1A95F8027232
:10457000B3FBF7F3002B49D0012740F6F67C6345E7
:1045800000D302274FF6F67C634500D303279B1C1C
:10459000C5F81432C5F81C629219C5F82022891991
:1045A000C5F82812B5F80812032F15D100292DD10E
:1045B00095F82F0095F82E10090441EA006095F84F
:1045C0002D1040EA012095F82C100843C5F824026C
:1045D000D5F81402800012E0002917D0D5F8201277
:1045E0004018C5F82402D5F81402022F01D140006A
:1045F00005E000EB400100F0010000EB5100D5F8B0
:10460000181200F2FF10B1EB502F01D20D206EE016
:104610004FF0FF30C5F81002C5F80C02802085F875
:104620000502032F58D195F8310095F8301041EA72
:104630000020012850D1711C2846FEF770FE00288A
:104640004AD1002085F8050295F8FF0195F8FE1182
:1046500041EA00204AF6552188423DD1E878A97800
:10466000090441EA0060697840EA0120297808439A
:104670004749884230D195F8E70195F8E6110904D9
:1046800041EA006095F8E51140EA012095F8E4114F
:104690000843404988421FD195F8EB0195F8EA118B
:1046A000090441EA006095F8E91140EA012095F813
:1046B000E8110843C5F8100295F8EF0195F8EE11DE
:1046C000090441EA006095F8ED1140EA012095F8EF
:1046D000EC110843C5F80C0285F800722088401CD4
:1046E0002080A5F806022846FEF7D2FD002004B07F
:1046F000BDE8F08180B5002813D0D0F80012002961
:104700000FD091F80022002A0BD001F50071CA8861
:10471000B0F80402824204D1487800F017FCC007C8
:1047200001D5092002BD002002BD73B582B0144638
:104730000846009000A8FFF7EBFD002801D50B20EC
:1047400020E0124901EB80056E68002E05D030464E
:10475000FEF79EFD002086F800020298002803D094
:104760000020029981F800020298686002980028EF
:1047700001D0012C01D0002004E0002203A902A8EE
:10478000FFF722FE04B070BD46415400D8A70020B8
:1047900052526141727241612DE9F243ADF5876D6C
:1047A00004461746002C01D10920E5E00020C4F89A
:1047B000000207F01F0707F0FE020DF58761FFA852
:1047C0001030FFF701FE060040F0D5800DF57F7830
:1047D00008F1100800A8C8F8180003A8C8F82000BD
:1047E000DDF8381483A8FFF757FD0600D8F81450F9
:1047F0000DD1002D01D1062609E007F0FE00411E73
:104800008941C943C90F83A8FEF793FC06461C20C3
:1048100007425BD0002E10D0042E09D1FEF7C1FC58
:10482000002804D083A8FFF7A8FA064600E0122665
:1048300047F00807D8F8145008E0E87A1121084238
:1048400001D0072602E0780700D50826002E49D1BE
:10485000380747D500F060FE804685F80E8080B2AC
:10486000000AE8734FEA184028744FEA1860687429
:104870000020E87228776877A877E8772946DDF87E
:104880000C04FFF790F8814600212846FFF79BF8BB
:104890000120DDF80C1481F80402B9F1000F21D0D9
:1048A000DDF80C04D0F82C824946FEF7BEFE060067
:1048B00018D1A9F10100DDF80C14C1F80C02414631
:1048C000DDF80C04FEF72BFD06460BE0002E09D1A7
:1048D000E87AC10601D5042604E0B90702D5C0076D
:1048E00000D50726002E1BD1380701D547F0200739
:1048F00004F50078DDF80C04D0F82C02C8F81C0090
:10490000C8F8205007F0FE00411E8941C943C90F75
:1049100083A8FEF758FCC8F82800002800D102261A
:10492000002E28D104F5007888F80670002088F859
:1049300007002946DDF80C04FFF735F8C8F8100029
:10494000E87FA97F090441EA0060697F40EA01200D
:10495000297F0843C8F80C000020C8F80800C8F8F0
:104960001800C8F82400DDF80C04C4F80002B0F800
:104970000602A8F8040030460DF23C4DBDE8F08375
:104980002DE9F84F054616461F460C4600203860B4
:104990002846FFF7AFFE002840F0C28005F50078FA
:1049A00098F80700002801D040B2B9E098F8060056
:1049B000C00701D40720B3E0D8F80C00D8F80810DD
:1049C000401AB0421DD806461BE0C8F818A0D8F817
:1049D0000800C005C00DC0F50071B1468E4200D977
:1049E00089464A4641192046FEF778FB4C44D8F8E0
:1049F00008004844C8F80800386848443860A6EB06
:104A00000906002E00F08B80D8F80810C805DED10A
:104A1000D5F8000290F802325B1E03EA51295FFAD2
:104A200089F9B9F1000F17D1002902D1D8F8100087
:104A30000BE0D8F82420002A03D02846FEF792FE87
:104A400003E0D8F81410FEF703FD02280ED310F18E
:104A5000010F60D0C8F81400D8F81410D5F800027F
:104A6000FEF7E7FC8246BAF1000F03D1022088F876
:104A7000070055E0CA445FEA562B27D0D5F800025C
:104A800000F2012149780BEB0902914201D2A1EB1E
:104A9000090B5B465246214690F8010200F06FFA7E
:104AA000002838D198F8060040060CD5D8F8180030
:104AB000A0EB0A00584506D24FF40072294604EBD9
:104AC0004020FEF70BFB4FEA4B298FE7D8F8182060
:104AD00052453FF47AAF98F8060040060FD50123FF
:104AE0002946D5F8000290F8010200F053FA002898
:104AF00011D198F8060000F0BF0088F806000123E5
:104B000052462946D5F8000290F8010200F037FA23
:104B100000283FF45AAF012088F8070000E0002089
:104B2000BDE8F28F70B50446FFF7E4FD002850D1D0
:104B300004F50075A9798A064BD5480610D50123DE
:104B4000AA692146D4F8000290F8010200F022FA86
:104B5000002801D0012070BDA87900F0BF00A87125
:104B6000E969D4F80002FEF7DAFB002831D12E6A99
:104B7000F07A40F02000F072E8683077E86880B2A0
:104B8000000A7077E868000CB077E868000EF077EC
:104B900029693046FEF717FF00F0BEFCB0750146EC
:104BA00089B2090AF175010C3176000E7076002089
:104BB000B074F074A87900F0DF00A8710120D4F877
:104BC000001281F80402D4F80002BDE87040FEF73C
:104BD000C3BB70BD10B50446FFF7A4FF00280DD17C
:104BE0002046FFF787FD002808D1D4F82802FEF7F9
:104BF00035FB002802D10021C4F8001210BD72B5A7
:104C0000ADF5057D040001D1092044E0002285A90D
:104C100000A8FFF7D9FB060037D10098C4F80002BE
:104C200004F5007501A8A86104A8286285992046AA
:104C3000FFF732FB060025D16969002908D0C87A40
:104C4000C00604D50098FEF7AEFEA86000E0052679
:104C5000002E17D10098B0F80602A8800021204647
:104C6000FEF798FD06000DD1A868002808D00021A5
:104C70002046FEF7A8FAE861002803D1122601E0D9
:104C80000020E861042E00D10526002E02D000206D
:104C9000C4F8000230460DF5067D70BD10B504461F
:104CA000FFF728FD00280CD104F50071C96900291F
:104CB00002D00846FEF7D2FA002802D10021C4F83B
:104CC000001210BD30B5ADF5037D04460D46FFF76B
:104CD00011FD002824D1002D04D100212046FEF72B
:104CE00059FD1DE004F5047000A9816003A901616C
:104CF00000212046FEF7D7FF042802D10020C4F887
:104D0000100200280CD129462046FFF703F90021A4
:104D10002046FEF793FD042802D10020C4F81002BB
:104D20000DF5037D30BD71B5ADF25C6D002401223F
:104D300040F25C61694440F234606844FFF744FB30
:104D400005005BD140F234666E4400A8B06103A850
:104D50003062DDF85C16FFA83830FFF79DFA0500D9
:104D600005D10221FFA83830FEF7E3F90546002DF2
:104D700044D17669002E01D1062503E0F07AC00700
:104D800000D50725002D22D13146DDF83406FEF787
:104D90000AFE04001BD0F07AC00618D54FF40A7240
:104DA000FFA9383183A8FEF799F9CDF81444022100
:104DB00083A8FEF7EFFC050009D1002183A8FEF7C8
:104DC00072FF050000D10725042D00D10025002D1C
:104DD00014D1FFA83830FFF76BF8050007D1002C7D
:104DE00005D02146DDF83406FEF71FFC0546002DF0
:104DF00004D1DDF83406FEF7AFFA054628460DF576
:104E0000CC6D70BDF3B5ADF2746D012240F27461EA
:104E1000694440F24C606844FFF7D6FA070040F05E
:104E20009180DDF84C06CDF8240440F24C646C44CB
:104E300000A8A06109A82062DDF87416FFA8503010
:104E4000FFF72AFA070005D10221FFA85030FEF72C
:104E500070F90746002F75D16069002801D1042739
:104E600070E0152200F10B0103A8FEF737F94FF4AB
:104E70000A72FFA9503189A8FEF730F90DF5CF600D
:104E8000FFF746FA002806D4DDF8781689A8FFF760
:104E900003FA074600E00B27002F00D10827042F54
:104EA00050D189A8FEF769FF07004BD1FFAD283527
:104EB0006E6913220DF10E0106F10D00FEF70EF9D9
:104EC0009DF80C0040F02000F0720120DDF84C1637
:104ED00081F80402F07AC00627D5A068A968884244
:104EE00023D0DDF84C4631462046FEF75CFD0146F6
:104EF0002046FEF79EFA010001D1022715E0204668
:104F0000FEF70DFA0746DDF84C0600F12006002FEB
:104F10000BD170782E2808D1A9683046FEF753FDD2
:104F20000120DDF84C1681F80402002F0AD1FFA8F9
:104F30005030FEF7BDFF070004D1DDF84C06FEF748
:104F40000BFA074638460DF27C6DF0BD01461D4A4E
:104F50008818007B02EB81014968496808470146CF
:104F60000020184A8B5C002B08D101208854881837
:104F7000007B02EB8101496809680847704738B532
:104F80000446104D6019007B05EB84046468A46836
:104F9000A04732BD38B504460A4D6019007B05EBC9
:104FA00084046468E468A04732BD18B40346054C25
:104FB0001819007B04EB83035B681B6901B010BC0C
:104FC00018470000BCA700200246802A1DDB0029EC
:104FD0000BD0FF2A01DD002070470FF2540000EBD8
:104FE0004200A0F580700088704700210FF2400356
:104FF00000E0491C89B20A46802A03DA33F81220FD
:105000009042F6D101F18000C0B27047002100E06B
:10501000491C0FF21C1232F81120002A01D09042D4
:10502000F6D1002A03D00FF2E82030F811007047C3
:10503000C700FC00E900E200E400E000E500E70052
:10504000EA00EB00E800EF00EE00EC00C400C50051
:10505000C900E600C600F400F600F200FB00F9000B
:10506000FF00D600DC00A200A300A500A72092014B
:10507000E100ED00F300FA00F100D100AA00BA004F
:10508000BF001023AC00BD00BC00A100AB00BB0002
:1050900091259225932502252425612562255625F3
:1050A00055256325512557255D255C255B25102554
:1050B000142534252C251C2500253C255E255F253F
:1050C0005A25542569256625602550256C256725B8
:1050D00068256425652559255825522553256B25B6
:1050E0006A2518250C25882584258C259025802562
:1050F000B103DF009303C003A303C303B500C403DC
:10510000A6039803A903B4031E22C603B5032922EC
:105110006122B1006522642220232123F700482266
:10512000B0001922B7001A227F20B200A025A000EB
:10513000610062006300640065006600670068004B
:1051400069006A006B006C006D006E006F007000FB
:1051500071007200730074007500760077007800AB
:1051600079007A00A100A200A300A500AC00AF0066
:10517000E000E100E200E300E400E500E600E70013
:10518000E800E900EA00EB00EC00ED00EE00EF00C3
:10519000F000F100F200F300F400F500F600F80072
:1051A000F900FA00FB00FC00FD00FE00FF00010119
:1051B00003010501070109010B010D010F01110197
:1051C00013011501170119011B011D011F01210107
:1051D00023012501270129012B012D012F01310177
:1051E0003301350137013A013C013E0140014201E2
:1051F0004401460148014B014D014F01510153014A
:105200005501570159015B015D015F0161016301B6
:105210006501670169016B016D016F017101730126
:10522000750177017A017C017E019201B103B2031D
:10523000B303B403B503B603B703B803B903BA03A2
:10524000BB03BC03BD03BE03BF03C003C103C30351
:10525000C403C503C603C703C803C903CA03300494
:10526000310432043304340435043604370438047A
:1052700039043A043B043C043D043E043F0440042A
:1052800041044204430444044504460447044804DA
:1052900049044A044B044C044D044E044F04510489
:1052A0005204530454045504560457045804590432
:1052B0005A045B045C045E045F0470217121722156
:1052C00073217421752176217721782179217A2122
:1052D0007B217C217D217E217F2141FF42FF43FFF5
:1052E00044FF45FF46FF47FF48FF49FF4AFF4BFF8A
:1052F0004CFF4DFF4EFF4FFF50FF51FF52FF53FF3A
:1053000054FF55FF56FF57FF58FF59FF5AFF000043
:105310004100420043004400450046004700480069
:1053200049004A004B004C004D004E004F00500019
:1053300051005200530054005500560057005800C9
:1053400059005A002100E0FFE1FFE5FFE2FFE3FF23
:10535000C000C100C200C300C400C500C600C70031
:10536000C800C900CA00CB00CC00CD00CE00CF00E1
:10537000D000D100D200D300D400D500D600D80090
:10538000D900DA00DB00DC00DD00DE00780100017E
:1053900002010401060108010A010C010E011001BD
:1053A00012011401160118011A011C011E0120012D
:1053B00022012401260128012A012C012E0130019D
:1053C00032013401360139013B013D013F01410108
:1053D0004301450147014A014C014E015001520170
:1053E0005401560158015A015C015E0160016201DD
:1053F0006401660168016A016C016E01700172014D
:105400007401760179017B017D0191019103920381
:1054100093039403950396039703980399039A03C0
:105420009B039C039D039E039F03A003A103A3036F
:10543000A403A503A603A703A803A903AA031004B2
:105440001104120413041404150416041704180498
:1054500019041A041B041C041D041E041F04200448
:1054600021042204230424042504260427042804F8
:1054700029042A042B042C042D042E042F040104D7
:1054800002040304040405040604070408040904D0
:105490000A040B040C040E040F0460216121622134
:1054A00063216421652166216721682169216A21C0
:1054B0006B216C216D216E216F2121FF22FF23FFC3
:1054C00024FF25FF26FF27FF28FF29FF2AFF2BFFA8
:1054D0002CFF2DFF2EFF2FFF30FF31FF32FF33FF58
:1054E00034FF35FF36FF37FF38FF39FF3AFF000042
:1054F00010B5064C04F10801054800F031F8607061
:10550000211D044800F02AF8207010BDCCA700200F
:1055100010DA0008FCD900080020704710B41F4BB7
:1055200000245C7098605A73312008703A204870EB
:105530002F2088702046C87010BC704710B4174BDD
:1055400000241C7058601A73302008703A2048708C
:105550002F2088702046C87010BC70470022DDE7FD
:105560000022EBE710B401210C4A937B002B0FD0F3
:1055700090F900003038C0B202EB80035C68002C68
:1055800006D00021596080180173907B401E9073F3
:10559000084610BC70470021E4E70000BCA70020CB
:1055A00000F5E0700268914203D343689A18914273
:1055B00002D380680028F5D17047DFF8240701681E
:1055C00091B9DFF820274FF4803181604FF480518A
:1055D00041604FF0FF31C160016104214161C2F8B7
:1055E000BC11DFF8041701600120704701F10803C6
:1055F00013F0070305D001F10803C3F1080303F01A
:1056000007035918D21A8161C26042F001034B604E
:10561000511828234B60DFF8C8160969C16170472B
:105620002DE9F84F044601F1080010F0070005D0FD
:1056300001F10800C0F1080000F0070000EB010BC9
:1056400002F1080010F0070005D002F10800C0F1D7
:10565000080000F007008618A6EB0B00A0EB03087B
:1056600003EB0B0743F00300CBF80400B74228BF5D
:1056700001F0F6F93079C00758BF01F0F1F9B8F13F
:10568000100F38BF01F0ECF9A069864207D1E0683D
:105690004044E060A76140F0010078605AE1606931
:1056A000864208D1A0684044A060676140F00101D3
:1056B0007960C0514EE1706800F00301012940F0AB
:1056C000AD80C0084FEAC00920283BD2D6F808A018
:1056D000F5680090AE4208BF01F0C2F9564508BF18
:1056E00001F0BEF970680099C008C000B0EBC10FAE
:1056F00018BF01F0B5F9009804EBC00000F12801D3
:105700008A4508D021698A45C0F08480DAF80C10F7
:10571000B14240F07F80554506D1009A20680121B2
:1057200091408843206077E02830854205D0206989
:1057300085426FD3A868B0426CD1CAF80C50C5F846
:1057400008A069E0F568D6F818A0B5420CD0B0689A
:105750002169884223D3C168B14204BFA968B1421C
:105760001DD1C560A8601CE006F11400056835B9BC
:1057700006F110000568A5B101E00846056805F1CD
:1057800014010A68002A02BF05F110010A68002A04
:10579000F3D12169884202D30021016001E001F0C8
:1057A0005FF9BAF1000F37D0F06904EB800000F523
:1057B000987001688E4209D10560280014D1F26901
:1057C0006068012191408843606025E0206982453E
:1057D00008D3DAF81000B04214BFCAF81450CAF85F
:1057E000105001E001F03CF9B5B12069854211D3B8
:1057F000C5F818A0316929B1814226BF29618D61A0
:1058000001F02EF9706938B12169884202D36861CC
:10581000856101E001F024F94E44C84470684008F5
:10582000400070604FEAD80548F00100786048F801
:105830000780202D21D204EBC50000F12806B146D7
:10584000B8F1100F38BF01F00BF9206820FA05F10C
:10585000C90704D40121A9400843206006E0B068CC
:10586000216988422CBF814601F0FAF8B760C9F877
:105870000C70C7F80890FE606CE05FEA182008BF63
:10588000002123D0B0F5803F28BF1F211ED2A0F5F4
:105890008071090C01F008018840A0F58052120CBB
:1058A00002F004029040A0F580431B0CC1F10E01F0
:1058B00003F00203891AC91A984001EBD030C11DC8
:1058C00028FA01F101F0010101EB4001F961002228
:1058D0007A613A6104EB8100626822FA01F300F513
:1058E0009870DB0706D4012303FA01F111436160CC
:1058F00007601CE01F2900680EBF00214908C1F1A4
:10590000190108FA01F100E010464268D208D200FD
:10591000424510D0CA0F00EB820202F11003490089
:105920001A68002AF0D121698B4211D31F60B86137
:10593000FF60BF600EE022698168904228BF9142FB
:1059400006D3CF608760B960F8600020B86101E0DD
:1059500001F086F80BF10800BDE8F28F2DE9F04F59
:105960000546DFF87C03006883B0884608B9FFF776
:1059700024FEDFF86C03806800EB08012F31401E25
:1059800021EA0000804580F0A881D5F8B81141B126
:10599000D5F8B0218018824280F09F818142C0F00A
:1059A0009C8101F061F800281EBF0446076814F1CD
:1059B000010F00F09281D5F8B0013818C5F8B00198
:1059C000D5F8B411814238BF0146C5F8B411A869B1
:1059D00088BB286908B1844200D22C61C5F8C04157
:1059E000C5F8C4710020C5F8CC0105F12801BC48F8
:1059F000006868624FF0FF3028620020C96089604B
:105A000001F10802801CD260103192602028F5D389
:105A1000B448854203D1A7F12802214625E055F874
:105A2000040CC00805EBC000A0F108013819401AA9
:105A3000A0F1280219E005F5E071084600E0806851
:105A4000B8B142680368D2189442F8D1027B1207B9
:105A50000FD4AA699A420CD3466833449A4208D2BA
:105A6000B9194160E868A9693A182846FFF7BEFDF0
:105A70001EE12869844238BF2C610846391900E0CC
:105A8000806880B102688A42FAD1017B09070AD492
:105A9000046043464168791841602846214603B0B6
:105AA000BDE8F04FBCE5AE6931462846FFF778FD0A
:105AB00041680068081801902F3800F1080111F0C2
:105AC000070105D000F10801C1F1080101F007014B
:105AD000081806F11001884234BF00960090009823
